:100000000C9450000C946D000C946D000C946D00D9
:100010000C946D000C946D000C946D000C946D00AC
:100020000C946D000C946D000C946D000C946D009C
:100030000C946D000C947F060C946D000C946D0074
:100040000C94D9090C946D000C946D000C946D0007
:100050000C946D000C946D000C946D000C946D006C
:100060000C946D000C946D00000000000000001F57
:100070001F1F1F1F1F1F736F6C766572004D617A03
:1000800065003E6733323E3E6333320033F7205221
:100090006F626F740020506F6C6F6C7500001F0AE8
:1000A00011241FBECFEFD8E0DEBFCDBF11E0A0E02E
:1000B000B1E0E2E1F3E202C005900D92A435B10790
:1000C000D9F722E0A4E5B1E001C01D92A03FB2073C
:1000D000E1F70E94400A0C947C110C94000080917E
:1000E0006B01E0916C01F0916D01882311F0849116
:1000F00001C080819FEB980F9A3110F4805E0895C3
:10010000803269F420916C0130916D01A9014F5F3B
:100110005F4F50936D0140936C01232B01F70895BD
:100120001F93CF93DF930E946F00C0E0D0E01AE0EE
:1001300090ED980F9A30B8F41C9F90011D9F300DE0
:100140001124E901C80FD11D87FDDA95E097809150
:100150006C0190916D01019690936D0180936C01FB
:100160000E946F00E5CFCE01DF91CF911F910895DE
:100170008F929F92AF92BF92DF92EF92FF920F9376
:100180001F93CF93DF937B01D42E20915501211132
:1001900019C021E02093550110926F0023E22093B3
:1001A000800021E1209381001092820020E137E25B
:1001B000309389002093880010928B0010928A005F
:1001C000229A78941092000197FF03C09F770AE06B
:1001D00001C001E010918100187F48EC049F90015C
:1001E000112428173907E8F4EC01C13187E2D80758
:1001F00010F0C0E1D7E2BE0176956795CB01A0E093
:10020000B0E0BC01CD016058794687469F4F4E0152
:10021000A12CB12CA50194010E940C11590111606F
:1002200024C028E2029F202D112430E0EC01821727
:10023000930708F4E901BE01769567959E0140E0B9
:1002400050E0CB01A0E0B0E0BC01CD010A3029F4C0
:10025000605E734481449F4F04C060537D4E8C4E5A
:100260009F4F0E940C1159011260812E0A3039F4FF
:10027000CE0105966AE070E00E94E410EB01C83EF2
:1002800043E0D40759F09701DE010E94551128EE92
:1002900033E040E050E00E942E11790110926F008F
:1002A00080928100B0928900A0928800809188009D
:1002B000909189000D2D003108F00FE020E130E031
:1002C000201B310902C0969587952A95E2F79093F5
:1002D0008B0080938A00F0925701E092560186B31A
:1002E0008FEF86BB81E080936F00DF91CF911F91EC
:1002F0000F91FF90EF90DF90BF90AF909F908F9005
:1003000008956F927F928F929F92AF92BF92CF92F9
:10031000DF92EF92FF920F931F93CF93DF93909012
:10032000090180915801882321F080916A0181118F
:1003300088C17724739470ECA72E7DE5B72EEAE090
:100340006E2EF4E08F2EA0EDCA2EA7E0DA2EB4E0D8
:10035000EB2EF12C04EF11E0CFE0D0E00E946F0013
:1003600020916C0130916D012F5F3F4F30936D01F3
:1003700020936C01853609F460C07CF5813609F460
:10038000A0C024F58C3309F453C08E3309F44EC059
:10039000813209F091C080920901D0920601C09289
:1003A0000501F0920801E092070110930401009307
:1003B0000301D0930201C093010110925801909063
:1003C00009018091030190910401C8CF833609F49B
:1003D0007BC084F5E12C2BE079C08D36B9F16CF44B
:1003E000873689F16CF18C3609F066C00E94900066
:1003F000909308018093070150C08237E1F154F4D3
:100400008F3609F059C00E949000809309019090A6
:100410000901A4CF843791F1863709F04DC00E94BD
:100420009000909302018093010198CF939496CF0E
:100430009A9494CFE12C22E049C0E12C24E046C0FC
:10044000E12C25E043C0E12C27E040C00E946F0072
:100450008C3619F41092580104C070925801109211
:100460006A0180916C0190916D01019690936D01EC
:1004700080936C0173CFEE24E39427C00E94900018
:10048000BC01C5010E94E410669EC001679E900DEC
:1004900011249093060180930501809105019091AC
:1004A000060160910701709108010E94E4107093A9
:1004B00004016093030152CF10926D0110926C0100
:1004C000CAC0E12C29E002C0E12C20E0F22E8CE031
:1004D000989EF00C11240E946F00982F977F933202
:1004E00059F480916C0190916D01019690936D018A
:1004F00080936C01F394EFCF8D3269F480916C019D
:1005000090916D01019690936D0180936C01FA9426
:100510000E946F00F1CFC0910301D091040181537B
:10052000883058F4C0910501D09106010E949000D6
:10053000BC01CE010E94E410EB018E0116950795D7
:100540000E946F008E3261F480916C0190916D0178
:10055000019690936D0180936C01C00FD11FEECF77
:1005600080915801882349F0CE0196958795809314
:100570006A0180916A01C81BD109009101011091A3
:100580000201E11005C09FEFF91611F0011105C03D
:1005900040E0BE0188EE93E044C080E18F1530F466
:1005A00020EF2F0D203618F02FE501C020E0822F1C
:1005B0006CE00E94D81030E09CE0899F201931093E
:1005C00011242C30310540F4220F331FF901E15E74
:1005D000FE4F2081318102C020E030E0873081F081
:1005E000082E02C0220F331F0A94E2F7823028F04F
:1005F000C90105966AE070E00CC0C90190580CC0B2
:10060000C90126E0880F991F2A95E1F7029665E057
:1006100070E00E94E410CB01402F003108F04FE061
:10062000BE01DF91CF911F910F91FF90EF90DF906E
:10063000CF90BF90AF909F908F907F906F900C94D1
:10064000B80060916A0170E040E088EE93E00E949B
:10065000B80010926A01DF91CF911F910F91FF9026
:10066000EF90DF90CF90BF90AF909F908F907F9052
:100670006F90089525B1482F417050E0BA01660F80
:10068000771F382F367098E0399FA0011124962FDC
:10069000942B2D7C922B95B99BB188708295807F8D
:1006A0009F77892B8BB95C9A81E090E00E949A0732
:1006B0005C9881E090E00C949A0783EF8093B000FF
:1006C00084BD1092B4001092B30018BC17BC86E031
:1006D0000E94F30685E00E94F3068BE00E94F30679
:1006E00083E00C94F3060F931F93CF93DF938C0159
:1006F000EB0180915E01811105C081E080935E0174
:100700000E945D0317FF05C011950195110981E055
:1007100001C080E00F3F110519F014F00FEF10E059
:10072000882319F018BC07BD02C008BD17BC809112
:100730005E01811105C081E080935E010E945D032E
:10074000D7FF05C0D195C195D10981E001C080E0F6
:10075000CF3FD10519F014F0CFEFD0E0882329F076
:100760001092B400C093B30004C0C093B4001092C0
:10077000B300DF91CF911F910F9108958C3479F0E0
:10078000823591F08234E1F460EB7FEF80E590E018
:100790000E9473036EE571E080E090E00FC060E5B9
:1007A00070E080EB9FEF04C060EB7FEF80E590E0AE
:1007B0000E94730368EC70E080E090E00C94840980
:1007C00008952F923F924F925F926F927F928F92F5
:1007D0009F92AF92BF92CF92DF92EF92FF920F93D0
:1007E0001F93CF93DF9300D000D000D0CDB7DEB7FA
:1007F000782E8B01642E0E94CD096B017C01812C27
:10080000912C54011E821D829B01770F440B550BC6
:1008100029833A834B835C831801110F44085508E0
:1008200080E691E00E94B1088C01005D1740C8018C
:10083000012E000CAA0BBB0B880E991EAA1EBB1E14
:10084000C8014D815E81841B950BDC01AA0FBB1F83
:10085000A80FB91FBE83AD83B7FF03C01196BE8337
:10086000AD832D813E81359527953E832D83C5012E
:10087000B40120E137E240E050E00E942E118D816A
:100880009E81280F391FC80164E170E00E94F810B2
:10089000D901A60FB71FBE83AD83711003C08CE3CF
:1008A00090E014C00E94CD09DC01CB0129813A817E
:1008B0004B815C81821B930BA40BB50B2816390668
:1008C0004A065B0608F069C081E490E0662011F0FA
:1008D00088EC90E09C014D815E81481759070CF42B
:1008E0009A0144275527481B590B241735071CF03C
:1008F00037FF05C0A901BC01840F951F03C0BC01CF
:10090000621B730B0E9473038091620190916301DB
:10091000883C910570F48091640190916501883C58
:10092000910538F48091660190916701883C9105AA
:1009300088F08091600190916101893C910550F4AB
:100940001E830D838091680190916901893C910516
:1009500008F466CF0E94CD090D2C000CEE08FF08AC
:100960006C197D098E099F0926960FB6F894DEBF93
:100970000FBECDBFDF91CF911F910F91FF90EF90F0
:10098000DF90CF90BF90AF909F908F907F906F90AF
:100990005F904F903F902F90089584E690E096CF1F
:1009A00080915F0181110DC081E080935F0184B16E
:1009B0008D7C84B985B1826385B985E090E00C9423
:1009C0009A070895FC011182108213821282158207
:1009D00014821682683068F489E290E09183808303
:1009E0008BE290E0938382838AE290E09583848314
:1009F0001FC06E3070F483E290E09183808385E2C3
:100A000090E09383828384E290E0958384836850AE
:100A10000FC0653198F486E290E09183808388E28C
:100A200090E09383828387E290E0958384836E5085
:100A300081E001C0880F6A95EAF78683089542E055
:100A400060E00C94260581E00C941F05DF92EF9284
:100A5000FF920F931F93CF93DF93182FD62EE42E80
:100A60008091590181114BC081E08093590180E14F
:100A700097E2A0E0B0E080935A0190935B01A093CD
:100A80005C01B0935D01529A209A549A6EE170E035
:100A900080E090E00E94840983E00E945E0666E0A8
:100AA00070E080E090E00E94840983E00E945E068E
:100AB00062E070E080E090E00E94840983E00E94A0
:100AC0005E0662E070E080E090E00E94840982E0CF
:100AD0000E945E0662E070E080E090E00E9484097F
:100AE00088E20E941F0588E00E941F0581E00E94A5
:100AF0001F0586E00E941F058CE00E941F050AB1B9
:100B000057985A98289AC0E0D0E081E090E00E947F
:100B10009A075C9A81E090E00E949A07F9B05C988D
:100B200081E090E00E949A075C9A81E090E00E9448
:100B30009A075C982496F7FE10C0CE01A0E0B0E0C2
:100B400040915A0150915B0160915C0170915D018F
:100B500084179507A607B707C0F20AB9D4B1C5B183
:100B6000FAB00BB12898DD2011F05A9A01C05A98BA
:100B700084B1826384B9579A81E0E81629F0812F05
:100B800082958F700E943A03812F8F700E943A03E2
:100B9000FAB80BB9D4B9C5B9DF91CF911F910F91B4
:100BA000FF90EF90DF90089542E061E00C942605FD
:100BB000CF92DF92EF92FF920F931F93CF93DF9329
:100BC000CDB7DEB72A970FB6F894DEBF0FBECDBF04
:100BD0001AE02AE0C22ED12CE12CF12C062FA7011D
:100BE00096010E940C11CA01B9011150E1E0F0E038
:100BF000EC0FFD1FE10FF11D005D2AE0629F00195F
:100C000011240083611571058105910539F71A30AA
:100C100058F4E1E0F0E0EC0FFD1FE10FF11D8081E1
:100C20000E94D4051F5FF3CF2A960FB6F894DEBF5B
:100C30000FBECDBFDF91CF911F910F91FF90EF902D
:100C4000DF90CF900895CF93DF93EC01FE01849164
:100C5000882321F00E94D4052196F8CFDF91CF910F
:100C60000895CF93DF93EC018991882319F00E94B6
:100C7000D405FACFDF91CF910895CF93C0919A0216
:100C80008C2F90E0FC01EA5CFD4F1082880F991FC9
:100C9000FC01E259FE4F118210820E94230586E377
:100CA00092E00E943106C93038F00E9418078EE3A6
:100CB00092E0CF910C943106CF91089541E060E02D
:100CC0000C9426050F931F93CF93DF93D62FDD0F40
:100CD000DD0FDD0F8C01C0E08D2F8C0F80640E9432
:100CE0001F05F80184910E94D405CF5F0F5F1F4F4D
:100CF000C83091F7DF91CF911F910F9108951F9206
:100D00000F920FB60F9211242F933F934F935F933F
:100D10006F937F938F939F93AF93BF93EF93FF93C3
:100D200080915601909157019C01215031093093D7
:100D3000570120935601892B11F510926F0078947A
:100D400080918100887F81608093810080E197E2BB
:100D5000909389008093880010928B0010928A00F3
:100D600081E08093000180916C0190916D01892B4D
:100D700031F080915401811102C00E948101FF91E4
:100D8000EF91BF91AF919F918F917F916F915F9103
:100D90004F913F912F910F900FBE0F901F9018957C
:100DA0009FB7F8944091E6025091E7026091E80203
:100DB0007091E90286B5A89B06C08F3F21F04F5F76
:100DC0005F4F6F4F7F4F9FBF762F652F542F442764
:100DD0009A01AB01280F311D411D511DA3E0B0E068
:100DE0000E946B110895CF93DF93CDB7DEB727979D
:100DF0000FB6F894DEBF0FBECDBF682FCE010196AF
:100E00000E94E204EB81FC8190818F81809589238F
:100E10008083ED81FE8190818F81892B808327964D
:100E20000FB6F894DEBF0FBECDBFDF91CF9108950E
:100E300080EC0C941F050F931F93CF93DF93EC016D
:100E400000917C0010917A0037B148B180917A000E
:100E500086FDFCCF80E09091A302891748F4FE0143
:100E6000E80FF11DE80FF11D118210828F5FF3CFA3
:100E700097B18091BD028095982397B998B1892345
:100E800088B987E880937A0090E08091BC02981737
:100E900010F480E015C020E029C020917A0026FDE2
:100EA000FCCF6091780070917900EE0FFF1FEC0F7E
:100EB000FD1FA081B1816A0F7B1F718360838F5FEB
:100EC0002091A302821780F4E82FF0E0DF01A556FD
:100ED000BD4F51962C91206420937C0020917A0084
:100EE000206420937A00D9CF9F5FCFCF8091A30257
:100EF0002817A8F4FE01E20FF11DE20FF11D609129
:100F0000BC0270E0DB01B595A795808191818A0FC5
:100F10009B1F0E94E410718360832F5FE7CF0093D3
:100F20007C0010937A0048B937B9DF91CF911F91B7
:100F30000F9108950000000000000000823091052C
:100F400050F09C01220F331F220F331F0797820F8F
:100F5000931F0197F1F70895E091A702F091A8027D
:100F6000309799F090818091A402892B8083E09141
:100F7000A502F091A60290818091A4028095892318
:100F8000808388EC90E00C949A0708958F929F924A
:100F9000BF92CF92DF92EF92FF920F931F93CF9366
:100FA000DF93EC01F090DC020091DD021091DE0293
:100FB00080E09091A302891748F4FE01E80FF11D2B
:100FC000E80FF11D118210828F5FF3CF84B1209161
:100FD000DC02822B84B987B19091DD02892B87B91D
:100FE0003AB18091DE02382B3AB935B1232B25B9BD
:100FF00028B1922B98B99BB1892B8BB98AE090E0EC
:101000000E949A0784B12091DC022095822384B942
:1010100087B19091DD029095892387B93AB180918B
:10102000DE02809538233AB935B1232325B928B19A
:10103000922398B99BB189238BB9E090B000B0900E
:10104000B1008091B00083608093B00082E0809313
:10105000B1002091B20080E090E04091A90250914F
:10106000AA028417950798F4F091B2003F2F321B23
:10107000830F911D33B13F1124C0E6B1E01321C0AD
:1010800029B121131EC00E2FF32E2F2FE6CFE09291
:10109000B000B092B10080E09091A3028917E0F512
:1010A000FE01E80FF11DE80FF11D20813181232B96
:1010B00031F42091A9023091AA02318320838F5FFD
:1010C000EBCF33B1E6B119B120E04091A302241770
:1010D000D0F6422F50E0BA01660F771F4E01860E00
:1010E000971ED401CD90DC90CD2881F465567D4FBC
:1010F000DB0191966D917C919297DB016C91455645
:101100005D4FDA0151964C91462311F02F5FDDCFF0
:10111000D4018D939C93FACFDF91CF911F910F91C2
:10112000FF90EF90DF90CF90BF909F908F900895A9
:10113000E091A702F091A802309791F09081809100
:10114000A402892B8083E091A502F091A6029081F0
:101150008091A402892B808388EC90E00C949A07FC
:1011600008959F92AF92BF92CF92DF92EF92FF923B
:101170000F931F93CF93DF93B82EA92E80919B02DC
:1011800090919C02892B71F44091A302CB2DDA2D12
:10119000A12CB12CE0E0F0E0C12CD12C7601912CF7
:1011A00050E068C080919D0290919E02892B61F36E
:1011B0000E9498088091AB02811105C08B2D9A2D59
:1011C0000E94C60704C08B2D9A2D0E941B070E9407
:1011D000AC07CB2DDA2DE0909D02F0909E02C090DE
:1011E0009B02D0909C0200E010E08091A30290E06E
:1011F000081719074CF6D701ED91FD917D01D60135
:101200008D919D916D01E81BF90BB9F02881398111
:10121000A90160E070E09A01AB01281B390B41097C
:101220005109A8EEB3E00E946B119F0140E050E02D
:101230000E942E1137FD0AC002C020E030E0293E96
:10124000B3E03B072CF028EE33E002C020E030E0B2
:10125000299339930F5F1F4FC8CF09911991093C0A
:1012600011055CF40333110554F45F5F88E1A81A9B
:101270008CEFB80A4513F1CF0DC0992493949801CF
:10128000D5010E944D11C60ED71EE81EF91EE00FB3
:10129000F11FEBCF91101DC050E04150510984EF78
:1012A00091E0489F9001499F300D589F300D1124C7
:1012B0008091EA029091EB0282179307B4F088EED6
:1012C00093E0489F9001499F300D589F300D1124A5
:1012D0000EC09F0140E050E0C701B6010E940C1112
:1012E0003093EB022093EA0202C020E030E0C90113
:1012F000DF91CF911F910F91FF90EF90DF90CF90F2
:10130000BF90AF909F9008958F929F92AF92BF929F
:10131000CF92DF92EF92FF926B017C010E94D00688
:101320004B015C01C114D104E104F104F1F00E940D
:10133000D006DC01CB0188199909AA09BB09883EAE
:101340009340A105B10570F321E0C21AD108E1086C
:10135000F10888EE880E83E0981EA11CB11CC11410
:10136000D104E104F10419F7DDCFFF90EF90DF9095
:10137000CF90BF90AF909F908F9008950E94D0041F
:101380001C9BFECF6AE070E080E090E00E94840940
:101390001C9BF6CF83B1807108952FB7F8946091AC
:1013A000E2027091E3028091E4029091E5022FBF86
:1013B00008951F920F920FB60F9211242F933F930F
:1013C0008F939F93AF93BF938091E2029091E3023A
:1013D000A091E402B091E5023091E10226E6230FEC
:1013E0002D3728F029EE230F0196A11DB11D209362
:1013F000E1028093E2029093E302A093E402B093AF
:10140000E5028091E6029091E702A091E802B09196
:10141000E9020196A11DB11D8093E6029093E702B7
:10142000A093E802B093E902BF91AF919F918F9191
:101430003F912F910F900FBE0F901F9018958091A4
:101440009D0290919E02009711F00E941E0F8091C4
:10145000A1029091A202009711F00E941E0F8091AC
:101460009B0290919C02009711F00E941E0F8091A8
:101470009F029091A002009711F00C941E0F089506
:10148000CF93DF93CDB7DEB7C056D1090FB6F8942E
:10149000DEBF0FBECDBF789484B5826084BD84B5B5
:1014A000816084BD85B5826085BD85B5816085BD5F
:1014B00080916E00816080936E0010928100809117
:1014C000810082608093810080918100816080939F
:1014D0008100809180008160809380008091B100C4
:1014E00084608093B1008091B00081608093B000EF
:1014F00080917A00846080937A0080917A00826083
:1015000080937A0080917A00816080937A00809144
:101510007A00806880937A001092C10085E0E0E153
:10152000F1E0DE01919601900D928A95E1F710921B
:101530009C0210929B0210929E0210929D021092A9
:10154000A00210929F021092A2021092A10285E0C6
:101550008093A3021092AB0263E1CE0101960E9438
:10156000E2048F818093A4028B819C819093A602D8
:101570008093A5028D819E819093A8028093A702FB
:101580001092DC021092DD021092DE0280ED97E0F4
:101590009093AA028093A902F12C8091A302F816DD
:1015A000B8F50F2D10E0E1E2F0E0EC0FFD1FE00FC9
:1015B000F11F6081CE0101960E94E2048F81F80143
:1015C000E556FD4F818B29813A81000F111FF801EB
:1015D000E556FD4F32A321A32332310531F490911A
:1015E000DC02892B8093DC0211C02632310531F4F4
:1015F0009091DD02892B8093DD0208C029323105EC
:1016000029F49091DE02892B8093DE02F394C5CFFA
:101610000E94AC0760E088E690E00E94620661E00C
:1016200089E690E00E94620662E08AE690E00E940D
:10163000620663E08BE690E00E94620664E08CE65E
:1016400090E00E94620665E08DE690E00E946206EE
:1016500066E08EE690E00E9462060E94230585E91E
:1016600090E00E9423060E9418078CE890E00E94F8
:10167000230610926F0082E890E090936D018093B2
:101680006C0181E080936B0110926A010E948101DC
:1016900068EE73E080E090E00E9484090E942305D8
:1016A0008DE790E00E9423060E94180786E790E0ED
:1016B0000E94230668EE73E080E090E00E948409B7
:1016C00017E8D12E0AE0202E312C44244A9483E0DE
:1016D000582E612C712C812C912C54018A940E94DB
:1016E000D0041C9B83C080917C008072E82EF12C7A
:1016F00080917C008F7D80937C00D0927A008091D5
:101700007C008076866480937C0080917A0080647F
:1017100080937A0080917A0086FDFCCF4AE050E009
:1017200080E090E0DC0120917A00206420937A0030
:1017300020917A0026FDFCCF20917C0025FF04C07B
:101740002091790030E004C0209178003091790038
:10175000820F931FA11DB11D4150510921F705961C
:10176000B1010E94E4109B01A8E8B3E10E94551169
:1017700020917C0025FF07C061587F4F8F4F9F4FFE
:10178000A501940106C061507E4F8F4F9F4FA3016A
:1017900092010E940C118901000F111F200F311FAF
:1017A0002F5F3F4F89011695079580917C00EF28A8
:1017B00011F48F7D01C0806280937C000E9423051C
:1017C000B80180E090E00E94D80587E391E00E9494
:1017D00031060E9418078AE391E00E94310664E610
:1017E00070E080E090E00E94840979CF0E94BE09F9
:1017F00068EE73E080E090E00E948409FCEEEF2E3A
:10180000FF24FA9428E2E216F10428F068ED7FEF55
:1018100088E290E004C068E270E088ED9FEF0E94EB
:10182000730380919D0290919E02892BC9F40091CF
:10183000A30210E0C801880F991F0E94860E9093A2
:101840009E0280939D02009709F4B2C0FC0180E0E3
:1018500090E08017910724F4119211920196F9CF2C
:1018600080919B0290919C02892B19F000E010E07E
:101870001DC00091A30210E0C801880F991F0E94AB
:10188000860E90939C0280939B02009709F490C06F
:101890002091A9023091AA02FC0180E090E080171B
:1018A000910724F7219331930196F9CF0E9498086C
:1018B0008091AB02811106C0CE018F5B9F4F0E94C9
:1018C000C60705C0CE018F5B9F4F0E941B070E9479
:1018D000AC078090A302912CCE0101965C01FE0121
:1018E000EF5BFF4F9E012F5D3F4F390140E050E01D
:1018F000481559054CF50115110589F0D301CD9016
:10190000DC9060817181C616D70648F0DC01CD906D
:10191000DC90608171816C157D0548F00DC060819F
:101920007181D3016D937C930115110579F7608165
:101930007181DC016D937C934F5F5F4F029632960D
:10194000B2E06B0E711CD4CF0F5F1F4F0A30110530
:1019500009F0ACCFA0919B02B0919C0200919D0236
:1019600010919E0280E090E04091A30250E0841725
:101970009507F4F4F501419151915F01F8016081FF
:1019800071816417750710F451834083F901419107
:1019900051919F016D917C9111974617570718F44B
:1019A00011965C934E93019612960E5F1F4FDCCFFB
:1019B00064E170E080E090E00E948409FFEFEF1A9C
:1019C000FF0A2CE3E216F10409F01CCF60E070E09E
:1019D00080E090E00E9473035AE6E52E51E0F52E78
:1019E00065E6C62ED12C0E94D0041C9B33C080E635
:1019F00091E00E94B1088C010E942305B80180E0AB
:101A000090E00E94D8050E94180700E611E08AE0E5
:101A1000E5E1F1E0DE01119601900D928A95E1F782
:101A2000D8018D919D918D01B6010E94E410E1E0F5
:101A3000F0E0EC0FFD1FE60FF71F80810E94D40538
:101A4000E016F10621F764E670E080E090E00E9485
:101A50008409C9CF0E94BE090E94230582E491E057
:101A60000E9431066AEF70E080E090E00E948409F5
:101A700043E5742E12E540E060E070E080E00E94F3
:101A8000E1034B015C0162E370E082E390E00E94BD
:101A9000730362E370E080E090E00E948409CE016D
:101AA00001960E94B108E980FA80C984DA8468E26C
:101AB00070E088E290E00E9473036FEA70E080E0DB
:101AC00090E00E948409CE0101960E94B1088B81AA
:101AD0009C81893C910558F48D819E81893C9105BA
:101AE000F0F48F819885893C9105C8F41EC0893532
:101AF0009240A8F08D819E818935924080F08F813F
:101B000098858935924058F089819A81893592402B
:101B100030F089859A858935924008F05AC089EC61
:101B2000E816F10438F403E506C0B9ECEB16F1044D
:101B300008F4E4C00CE4802F0E94BE0320919A02B6
:101B4000822F90E0FC01EA5CFD4F0083880F991F13
:101B5000FC01E259FE4F918280822F5F2330A0F179
:101B6000822F90E0AC014A5C5D4FFA0132973081E0
:101B7000323451F5FA01319740814C3469F4FC015B
:101B8000ED5CFD4F80818235E1F08C3411F4708280
:101B900019C08335B9F408C0433559F4FC01ED5C34
:101BA000FD4F80818C3411F410830CC0833551F4C7
:101BB00008C0423539F4FC01ED5CFD4F80818C3466
:101BC00009F430832250CACF20939A020E943D0626
:101BD00052CF96E4C92E91E0D92E20ED822E27E037
:101BE000922EA12CB12C60E070E080E090E00E9489
:101BF000730310926F00D0926D01C0926C0110922D
:101C00006B0110926A010E9481010E94D0041C9B0A
:101C100021C00E94CD09A50194010E940C11683ECB
:101C200073408105910568F40E9423058CE491E0DE
:101C30000E9431060E9418078AE391E00E94310653
:101C400002C00E943D066EE170E080E090E00E94DC
:101C50008409DBCF0E94D0041C9BFCCF6AEF70E0AC
:101C600080E090E00E9484098EE6E82E81E0F82E64
:101C700006E312E080919A0290E0980126533240E8
:101C800028173907A4F5F701619171917F01072E9B
:101C9000000C880B990B0E94DF0F20E030E040E041
:101CA0005FE30E9443100E94A70F40E081E00E9482
:101CB000E10362E370E082E390E00E94730362E379
:101CC00070E080E090E00E94840968E270E088E2C1
:101CD00090E00E9473036FEA70E080E090E00E9461
:101CE0008409D8018D918D010E94BE03C3CF41E0CC
:101CF00060E070E081E00E94E10375CF99ECC916C5
:101D0000D10410F402E417CF02E515CF0F931F930F
:101D1000CF93DF938230910510F482E090E0E09160
:101D2000EE02F091EF0220E030E0A0E0B0E030976A
:101D300019F1408151810281138148175907C8F078
:101D40008417950769F4109731F012960C93129747
:101D500013961C9327C00093EE021093EF0222C04B
:101D60002115310519F04217530718F49A01BD01E6
:101D7000EF01DF01F801DBCF21153105F9F0281B58
:101D8000390B2430310580F48A819B8161157105FE
:101D900021F0FB019383828304C09093EF02809330
:101DA000EE02FE01329644C0FE01E20FF31F819362
:101DB000919322503109398328833AC02091EC0253
:101DC0003091ED02232B41F420910C0130910D0153
:101DD0003093ED022093EC0220910A0130910B0127
:101DE0002115310541F42DB73EB740910E015091B8
:101DF0000F01241B350BE091EC02F091ED02E2178C
:101E0000F307A0F42E1B3F0B2817390778F0AC011D
:101E10004E5F5F4F2417350748F04E0F5F1F5093FA
:101E2000ED024093EC028193919302C0E0E0F0E078
:101E3000CF01DF91CF911F910F910895CF93DF9341
:101E4000009709F481C0FC01329713821282A0919D
:101E5000EE02B091EF02109781F420813181820F60
:101E6000931F2091EC023091ED022817390751F5AC
:101E7000F093ED02E093EC0267C0ED0120E030E06A
:101E8000CE17DF0740F44A815B819E014115510561
:101E9000F1F0EA01F5CFD383C28340815181840FF1
:101EA000951FC817D90759F488819981840F951F08
:101EB0000296918380838A819B81938382832115FB
:101EC000310529F4F093EF02E093EE023DC0E90101
:101ED000FB83EA8349915991C40FD51FEC17FD0785
:101EE00061F480819181840F951F0296E9019983A5
:101EF0008883828193819B838A83E0E0F0E012965D
:101F00008D919C911397009719F0FD01DC01F7CF9B
:101F10008D919C9111979D012E5F3F4F820F931FD2
:101F20002091EC023091ED022817390769F43097BF
:101F300029F41092EF021092EE0202C01382128274
:101F4000B093ED02A093EC02DF91CF9108950E942F
:101F5000AE0F6894B1110C943D1008950E942210A8
:101F600088F09F5798F0B92F9927B751B0F0E1F05A
:101F7000660F771F881F991F1AF0BA95C9F714C00A
:101F8000B13091F00E943C10B1E008950C943C10E7
:101F9000672F782F8827B85F39F0B93FCCF3869543
:101FA00077956795B395D9F73EF4909580957095A0
:101FB00061957F4F8F4F9F4F0895E89409C097FB1D
:101FC0003EF490958095709561957F4F8F4F9F4F10
:101FD0009923A9F0F92F96E9BB279395F695879554
:101FE00077956795B795F111F8CFFAF4BB0F11F417
:101FF00060FF1BC06F5F7F4F8F4F9F4F16C08823BE
:1020000011F096E911C0772321F09EE8872F762FF3
:1020100005C0662371F096E8862F70E060E02AF034
:102020009A95660F771F881FDAF7880F9695879520
:1020300097F9089557FD9058440F551F59F05F3F89
:1020400071F04795880F97FB991F61F09F3F79F0DA
:1020500087950895121613061406551FF2CF46955C
:10206000F1DF08C0161617061806991FF1CF8695DE
:102070007105610508940895E894BB2766277727C2
:10208000CB0197F908950E9456100C94C7100E9436
:10209000B91038F00E94C01020F0952311F00C9474
:1020A000B0100C94B61011240C943D100E941A101C
:1020B00070F3959FC1F3950F50E0551F629FF0019B
:1020C000729FBB27F00DB11D639FAA27F00DB11DB4
:1020D000AA1F649F6627B00DA11D661F829F22273D
:1020E000B00DA11D621F739FB00DA11D621F839FC4
:1020F000A00D611D221F749F3327A00D611D231F9A
:10210000849F600D211D822F762F6A2F11249F57E7
:1021100050409AF0F1F088234AF0EE0FFF1FBB1FEA
:10212000661F771F881F91505040A9F79E3F5105A9
:1021300080F00C94B0100C943D105F3FE4F3983E97
:10214000D4F3869577956795B795F795E7959F5F53
:10215000C1F7FE2B880F911D9695879597F90895E5
:1021600097F99F6780E870E060E008959FEF80EC4A
:10217000089500240A9416161706180609060895ED
:1021800000240A9412161306140605060895092E53
:102190000394000C11F4882352F0BB0F40F4BF2BC2
:1021A00011F460FF04C06F5F7F4F8F4F9F4F089502
:1021B000991B79E004C0991F961708F0961B881F99
:1021C0007A95C9F780950895AA1BBB1B51E107C0FA
:1021D000AA1FBB1FA617B70710F0A61BB70B881FB7
:1021E000991F5A95A9F780959095BC01CD01089546
:1021F00097FB072E16F4009407D077FD09D00E94B4
:10220000E41007FC05D03EF4909581959F4F08950A
:10221000709561957F4F0895A1E21A2EAA1BBB1BF2
:10222000FD010DC0AA1FBB1FEE1FFF1FA217B307A2
:10223000E407F50720F0A21BB30BE40BF50B661FB8
:10224000771F881F991F1A9469F76095709580957C
:1022500090959B01AC01BD01CF010895052E97FB20
:102260001EF400940E94451157FD07D00E940C11E6
:1022700007FC03D04EF40C944511509540953095D1
:1022800021953F4F4F4F5F4F0895909580957095E2
:1022900061957F4F8F4F9F4F08950E9455113323B3
:1022A00012F48A1B9B0B0C946611A29FB001B39F82
:1022B000C001A39F700D811D1124911DB29F700D4F
:1022C000811D1124911D08950E945511B7FF089595
:1022D000821B930B08950E945511A59F900DB49FEA
:1022E000900DA49F800D911D11240895EE0FFF1FE6
:1022F0000590F491E02D099410E0CFE4D0E004C003
:10230000FE010E9476112196C035D107C9F7F894D5
:02231000FFCFFD
:10231200010F00F401D0070400040000F002800065
:102322000E0F101112200000010203040506FF9C8B
:1023320001B501CF01EA0107022602470269028EB6
:1023420002B502DE020A036D5600507265737320F5
:102352004200476F21003E3E61333200536F6C767C
:04236200656421008D
:00000001FF
